{
  "contractName": "Voting",
  "abi": [
    {
      "anonymous": false,
      "inputs": [
        {
          "indexed": false,
          "internalType": "uint256",
          "name": "proposalId",
          "type": "uint256"
        }
      ],
      "name": "ProposalRegistered",
      "type": "event"
    },
    {
      "anonymous": false,
      "inputs": [],
      "name": "ProposalsRegistrationEnded",
      "type": "event"
    },
    {
      "anonymous": false,
      "inputs": [],
      "name": "ProposalsRegistrationStarted",
      "type": "event"
    },
    {
      "anonymous": false,
      "inputs": [
        {
          "indexed": false,
          "internalType": "address",
          "name": "voter",
          "type": "address"
        },
        {
          "indexed": false,
          "internalType": "uint256",
          "name": "proposalId",
          "type": "uint256"
        }
      ],
      "name": "Voted",
      "type": "event"
    },
    {
      "anonymous": false,
      "inputs": [
        {
          "indexed": false,
          "internalType": "address",
          "name": "voterAddress",
          "type": "address"
        }
      ],
      "name": "VoterRegistered",
      "type": "event"
    },
    {
      "anonymous": false,
      "inputs": [],
      "name": "VotesTallied",
      "type": "event"
    },
    {
      "anonymous": false,
      "inputs": [],
      "name": "VotingSessionEnded",
      "type": "event"
    },
    {
      "anonymous": false,
      "inputs": [],
      "name": "VotingSessionStarted",
      "type": "event"
    },
    {
      "anonymous": false,
      "inputs": [
        {
          "indexed": false,
          "internalType": "enum Voting.WorkflowStatus",
          "name": "previousStatus",
          "type": "uint8"
        },
        {
          "indexed": false,
          "internalType": "enum Voting.WorkflowStatus",
          "name": "newStatus",
          "type": "uint8"
        }
      ],
      "name": "WorkflowStatusChange",
      "type": "event"
    },
    {
      "constant": true,
      "inputs": [],
      "name": "getOwner",
      "outputs": [
        {
          "internalType": "address",
          "name": "",
          "type": "address"
        }
      ],
      "payable": false,
      "stateMutability": "view",
      "type": "function"
    },
    {
      "constant": true,
      "inputs": [],
      "name": "isOwner",
      "outputs": [
        {
          "internalType": "bool",
          "name": "",
          "type": "bool"
        }
      ],
      "payable": false,
      "stateMutability": "view",
      "type": "function"
    },
    {
      "constant": true,
      "inputs": [],
      "name": "getCurrentStatus",
      "outputs": [
        {
          "internalType": "uint256",
          "name": "",
          "type": "uint256"
        }
      ],
      "payable": false,
      "stateMutability": "view",
      "type": "function"
    },
    {
      "constant": true,
      "inputs": [
        {
          "internalType": "uint256",
          "name": "_idProposal",
          "type": "uint256"
        }
      ],
      "name": "getProposalsById",
      "outputs": [
        {
          "internalType": "string",
          "name": "",
          "type": "string"
        }
      ],
      "payable": false,
      "stateMutability": "view",
      "type": "function"
    },
    {
      "constant": true,
      "inputs": [],
      "name": "getProposalsByIdLength",
      "outputs": [
        {
          "internalType": "uint256",
          "name": "",
          "type": "uint256"
        }
      ],
      "payable": false,
      "stateMutability": "view",
      "type": "function"
    },
    {
      "constant": true,
      "inputs": [
        {
          "internalType": "uint256",
          "name": "index",
          "type": "uint256"
        }
      ],
      "name": "getAddress",
      "outputs": [
        {
          "internalType": "address",
          "name": "",
          "type": "address"
        }
      ],
      "payable": false,
      "stateMutability": "view",
      "type": "function"
    },
    {
      "constant": true,
      "inputs": [],
      "name": "getAddressCount",
      "outputs": [
        {
          "internalType": "uint256",
          "name": "",
          "type": "uint256"
        }
      ],
      "payable": false,
      "stateMutability": "view",
      "type": "function"
    },
    {
      "constant": false,
      "inputs": [
        {
          "internalType": "address",
          "name": "_address",
          "type": "address"
        }
      ],
      "name": "AdminVoteRegisterAdress",
      "outputs": [],
      "payable": false,
      "stateMutability": "nonpayable",
      "type": "function"
    },
    {
      "constant": false,
      "inputs": [
        {
          "internalType": "address[]",
          "name": "_addresses",
          "type": "address[]"
        }
      ],
      "name": "AdminVoteRegisterAdresses",
      "outputs": [],
      "payable": false,
      "stateMutability": "nonpayable",
      "type": "function"
    },
    {
      "constant": false,
      "inputs": [
        {
          "internalType": "enum Voting.WorkflowStatus",
          "name": "_status",
          "type": "uint8"
        }
      ],
      "name": "AdminActions",
      "outputs": [],
      "payable": false,
      "stateMutability": "nonpayable",
      "type": "function"
    },
    {
      "constant": false,
      "inputs": [
        {
          "internalType": "string",
          "name": "_descriptionProposal",
          "type": "string"
        }
      ],
      "name": "UsersProposalsRecord",
      "outputs": [],
      "payable": false,
      "stateMutability": "nonpayable",
      "type": "function"
    },
    {
      "constant": false,
      "inputs": [
        {
          "internalType": "uint256",
          "name": "proposalId",
          "type": "uint256"
        }
      ],
      "name": "UsersVote",
      "outputs": [],
      "payable": false,
      "stateMutability": "nonpayable",
      "type": "function"
    },
    {
      "constant": true,
      "inputs": [],
      "name": "UsersGetWinningProposal",
      "outputs": [
        {
          "internalType": "uint256",
          "name": "",
          "type": "uint256"
        },
        {
          "internalType": "string",
          "name": "",
          "type": "string"
        },
        {
          "internalType": "uint256",
          "name": "",
          "type": "uint256"
        }
      ],
      "payable": false,
      "stateMutability": "view",
      "type": "function"
    }
  ],
  "bytecode": "0x60806040526000600560006101000a81548160ff021916908315150217905550336000806101000a81548173ffffffffffffffffffffffffffffffffffffffff021916908373ffffffffffffffffffffffffffffffffffffffff1602179055506121aa8061006e6000396000f3fe608060405234801561001057600080fd5b50600436106100cf5760003560e01c8063a3dd26191161008c578063ba48a3e811610066578063ba48a3e814610379578063cdbb02af14610397578063cf29facd146103b5578063ff4b048e1461042e576100cf565b8063a3dd2619146102bf578063b47f76ad146102dd578063b93f9b0a1461030b576100cf565b80633c53dc8d146100d45780633f7cbeba1461014d578063893d20e8146101915780638f32d59b146101db57806392b6627a146101fd57806395c29c681461022e575b600080fd5b61014b600480360360208110156100ea57600080fd5b810190808035906020019064010000000081111561010757600080fd5b82018360208201111561011957600080fd5b8035906020019184602083028401116401000000008311171561013b57600080fd5b90919293919293905050506104d5565b005b61018f6004803603602081101561016357600080fd5b81019080803573ffffffffffffffffffffffffffffffffffffffff169060200190929190505050610773565b005b610199610982565b604051808273ffffffffffffffffffffffffffffffffffffffff1673ffffffffffffffffffffffffffffffffffffffff16815260200191505060405180910390f35b6101e36109ab565b604051808215151515815260200191505060405180910390f35b61022c6004803603602081101561021357600080fd5b81019080803560ff169060200190929190505050610a02565b005b610236610cd4565b6040518084815260200180602001838152602001828103825284818151815260200191508051906020019080838360005b83811015610282578082015181840152602081019050610267565b50505050905090810190601f1680156102af5780820380516001836020036101000a031916815260200191505b5094505050505060405180910390f35b6102c7610eb5565b6040518082815260200191505060405180910390f35b610309600480360360208110156102f357600080fd5b8101908080359060200190929190505050610ed7565b005b6103376004803603602081101561032157600080fd5b8101908080359060200190929190505050611199565b604051808273ffffffffffffffffffffffffffffffffffffffff1673ffffffffffffffffffffffffffffffffffffffff16815260200191505060405180910390f35b6103816111d6565b6040518082815260200191505060405180910390f35b61039f6111e0565b6040518082815260200191505060405180910390f35b61042c600480360360208110156103cb57600080fd5b81019080803590602001906401000000008111156103e857600080fd5b8201836020820111156103fa57600080fd5b8035906020019184600183028401116401000000008311171561041c57600080fd5b90919293919293905050506111ea565b005b61045a6004803603602081101561044457600080fd5b81019080803590602001909291905050506114e5565b6040518080602001828103825283818151815260200191508051906020019080838360005b8381101561049a57808201518184015260208101905061047f565b50505050905090810190601f1680156104c75780820380516001836020036101000a031916815260200191505b509250505060405180910390f35b3373ffffffffffffffffffffffffffffffffffffffff166000809054906101000a900473ffffffffffffffffffffffffffffffffffffffff1673ffffffffffffffffffffffffffffffffffffffff1614610597576040517f08c379a00000000000000000000000000000000000000000000000000000000081526004018080602001828103825260208152602001807f4f776e61626c653a2063616c6c6572206973206e6f7420746865206f776e657281525060200191505060405180910390fd5b600060058111156105a457fe5b600560159054906101000a900460ff1660058111156105bf57fe5b14610632576040517f08c379a000000000000000000000000000000000000000000000000000000000815260040180806020018281038252601f8152602001807f54686520766f74696e67207265676973746572696e6720697320656e6465640081525060200191505060405180910390fd5b60008090505b8282905081101561071e576007600084848481811061065357fe5b9050602002013573ffffffffffffffffffffffffffffffffffffffff1673ffffffffffffffffffffffffffffffffffffffff1673ffffffffffffffffffffffffffffffffffffffff16815260200190815260200160002060000160009054906101000a900460ff1615610711576040517f08c379a000000000000000000000000000000000000000000000000000000000815260040180806020018281038252602b81526020018061207b602b913960400191505060405180910390fd5b8080600101915050610638565b5060008090505b8282905081101561076e5761076183838381811061073f57fe5b9050602002013573ffffffffffffffffffffffffffffffffffffffff1661159d565b8080600101915050610725565b505050565b3373ffffffffffffffffffffffffffffffffffffffff166000809054906101000a900473ffffffffffffffffffffffffffffffffffffffff1673ffffffffffffffffffffffffffffffffffffffff1614610835576040517f08c379a00000000000000000000000000000000000000000000000000000000081526004018080602001828103825260208152602001807f4f776e61626c653a2063616c6c6572206973206e6f7420746865206f776e657281525060200191505060405180910390fd5b6000600581111561084257fe5b600560159054906101000a900460ff16600581111561085d57fe5b146108d0576040517f08c379a000000000000000000000000000000000000000000000000000000000815260040180806020018281038252601f8152602001807f54686520766f74696e67207265676973746572696e6720697320656e6465640081525060200191505060405180910390fd5b600760008273ffffffffffffffffffffffffffffffffffffffff1673ffffffffffffffffffffffffffffffffffffffff16815260200190815260200160002060000160009054906101000a900460ff1615610976576040517f08c379a00000000000000000000000000000000000000000000000000000000081526004018080602001828103825260228152602001806120a66022913960400191505060405180910390fd5b61097f8161159d565b50565b60008060009054906101000a900473ffffffffffffffffffffffffffffffffffffffff16905090565b60003373ffffffffffffffffffffffffffffffffffffffff166000809054906101000a900473ffffffffffffffffffffffffffffffffffffffff1673ffffffffffffffffffffffffffffffffffffffff1614905090565b3373ffffffffffffffffffffffffffffffffffffffff166000809054906101000a900473ffffffffffffffffffffffffffffffffffffffff1673ffffffffffffffffffffffffffffffffffffffff1614610ac4576040517f08c379a00000000000000000000000000000000000000000000000000000000081526004018080602001828103825260208152602001807f4f776e61626c653a2063616c6c6572206973206e6f7420746865206f776e657281525060200191505060405180910390fd5b6000816005811115610ad257fe5b90506005811115610b2e576040517f08c379a00000000000000000000000000000000000000000000000000000000081526004018080602001828103825260338152602001806121436033913960400191505060405180910390fd5b6002548114610b4057610b3f61175b565b5b60016005811115610b4d57fe5b826005811115610b5957fe5b1415610b6c57610b676119bc565b610c13565b60026005811115610b7957fe5b826005811115610b8557fe5b1415610b9857610b93611a62565b610c12565b60036005811115610ba557fe5b826005811115610bb157fe5b1415610bbc57610c11565b60046005811115610bc957fe5b826005811115610bd557fe5b1415610be857610be3611b08565b610c10565b600580811115610bf457fe5b826005811115610c0057fe5b1415610c0f57610c0e611b36565b5b5b5b5b5b600580811115610c1f57fe5b826005811115610c2b57fe5b14610c43576002600081548092919060010191905055505b7f0a97a4ee45751e2abf3e4fc8946939630b11b371ea8ae39ccdc3056e98f5cc3f600560159054906101000a900460ff168360405180836005811115610c8557fe5b60ff168152602001826005811115610c9957fe5b60ff1681526020019250505060405180910390a181600560156101000a81548160ff02191690836005811115610ccb57fe5b02179055505050565b600060606000600580811115610ce657fe5b600560159054906101000a900460ff166005811115610d0157fe5b14610d74576040517f08c379a000000000000000000000000000000000000000000000000000000000815260040180806020018281038252601b8152602001807f54686520766f7465206973206e6f742074616c6c69656420796574000000000081525060200191505060405180910390fd5b600560009054906101000a900460ff1615610dda576040517f08c379a000000000000000000000000000000000000000000000000000000000815260040180806020018281038252603a815260200180612041603a913960400191505060405180910390fd5b60015460086000600154815260200190815260200160002060000160086000600154815260200190815260200160002060010154818054600181600116156101000203166002900480601f016020809104026020016040519081016040528092919081815260200182805460018160011615610100020316600290048015610ea35780601f10610e7857610100808354040283529160200191610ea3565b820191906000526020600020905b815481529060010190602001808311610e8657829003601f168201915b50505050509150925092509250909192565b6000600560159054906101000a900460ff166005811115610ed257fe5b905090565b610edf611c24565b610f71600760003373ffffffffffffffffffffffffffffffffffffffff1673ffffffffffffffffffffffffffffffffffffffff1681526020019081526020016000206040518060600160405290816000820160009054906101000a900460ff161515151581526020016000820160019054906101000a900460ff16151515158152602001600182015481525050611d8c565b6004548110610fe8576040517f08c379a000000000000000000000000000000000000000000000000000000000815260040180806020018281038252601e8152602001807f546869732070726f706f736974696f6e20646f65736e2774206578697374000081525060200191505060405180910390fd5b600760003373ffffffffffffffffffffffffffffffffffffffff1673ffffffffffffffffffffffffffffffffffffffff16815260200190815260200160002060000160019054906101000a900460ff16156110ab576040517f08c379a000000000000000000000000000000000000000000000000000000000815260040180806020018281038252601b8152602001807f5468697320757365722068617320616c726561647920766f746564000000000081525060200191505060405180910390fd5b6001600760003373ffffffffffffffffffffffffffffffffffffffff1673ffffffffffffffffffffffffffffffffffffffff16815260200190815260200160002060000160016101000a81548160ff021916908315150217905550600160086000838152602001908152602001600020600101600082825401925050819055507f4d99b957a2bc29a30ebd96a7be8e68fe50a3c701db28a91436490b7d53870ca43382604051808373ffffffffffffffffffffffffffffffffffffffff1673ffffffffffffffffffffffffffffffffffffffff1681526020018281526020019250505060405180910390a150565b60006006600083815260200190815260200160002060009054906101000a900473ffffffffffffffffffffffffffffffffffffffff169050919050565b6000600454905090565b6000600354905090565b6111f2611e06565b6111fa611f76565b600760003373ffffffffffffffffffffffffffffffffffffffff1673ffffffffffffffffffffffffffffffffffffffff1681526020019081526020016000206040518060600160405290816000820160009054906101000a900460ff161515151581526020016000820160019054906101000a900460ff16151515158152602001600182015481525050905061128f81611d8c565b60008090505b6004548110156113fb576060600860008381526020019081526020016000206000018054600181600116156101000203166002900480601f01602080910402602001604051908101604052809291908181526020018280546001816001161561010002031660029004801561134b5780601f106113205761010080835404028352916020019161134b565b820191906000526020600020905b81548152906001019060200180831161132e57829003601f168201915b5050505050905080805190602001208585604051808383808284378083019250505092505050604051809103902014156113ed576040517f08c379a000000000000000000000000000000000000000000000000000000000815260040180806020018281038252601f8152602001807f546869732070726f706f736974696f6e20616c7265616479206578697374730081525060200191505060405180910390fd5b508080600101915050611295565b50604051806040016040528084848080601f016020809104026020016040519081016040528093929190818152602001838380828437600081840152601f19601f82011690508083019250505050505050815260200160008152506008600060045481526020019081526020016000206000820151816000019080519060200190611487929190611f9b565b50602082015181600101559050507f92e393e9b54e2f801d3ea4beb0c5e71a21cc34a5d34b77d0fb8a3aa1650dc18f6004546040518082815260200191505060405180910390a1600460008154809291906001019190505550505050565b6060600860008381526020019081526020016000206000018054600181600116156101000203166002900480601f0160208091040260200160405190810160405280929190818152602001828054600181600116156101000203166002900480156115915780601f1061156657610100808354040283529160200191611591565b820191906000526020600020905b81548152906001019060200180831161157457829003601f168201915b50505050509050919050565b6001600760008373ffffffffffffffffffffffffffffffffffffffff1673ffffffffffffffffffffffffffffffffffffffff16815260200190815260200160002060000160006101000a81548160ff0219169083151502179055506001600082829250600260006005601560066000600354815260200190815260200160002060008691906101000a81548173ffffffffffffffffffffffffffffffffffffffff021916908373ffffffffffffffffffffffffffffffffffffffff1602179055508591906101000a81548160ff0219169083600581111561167a57fe5b021790555084919050555050506003600081548092919060010191905055507fb6be2187d059cc2a55fe29e0e503b566e1e0f8c8780096e185429350acffd3dd81604051808273ffffffffffffffffffffffffffffffffffffffff1673ffffffffffffffffffffffffffffffffffffffff16815260200191505060405180910390a17f0a97a4ee45751e2abf3e4fc8946939630b11b371ea8ae39ccdc3056e98f5cc3f6000806040518083600581111561173057fe5b60ff16815260200182600581111561174457fe5b60ff1681526020019250505060405180910390a150565b6060604051806020016040528060008152509050600060025414156117b3576040518060400160405280601981526020017f46697273742073746570203a20726567697374726174696f6e0000000000000081525090505b600160025414156117fb576040518060400160405280601e81526020017f4e6578742073746570203a20726567697374726174696f6e2073746172740000815250905061191a565b600280541415611842576040518060400160405280601c81526020017f4e6578742073746570203a20726567697374726174696f6e20656e64000000008152509050611919565b6003600254141561188a576040518060400160405280601681526020017f4e6578742073746570203a20766f7465207374617274000000000000000000008152509050611918565b600460025414156118d2576040518060400160405280601481526020017f4e6578742073746570203a20766f746520656e640000000000000000000000008152509050611917565b60056002541415611916576040518060400160405280601981526020017f4e6578742073746570203a20766f746520636f756e74696e670000000000000081525090505b5b5b5b5b806040517f08c379a00000000000000000000000000000000000000000000000000000000081526004018080602001828103825283818151815260200191508051906020019080838360005b83811015611981578082015181840152602081019050611966565b50505050905090810190601f1680156119ae5780820380516001836020036101000a031916815260200191505b509250505060405180910390fd5b600060035411611a34576040517f08c379a000000000000000000000000000000000000000000000000000000000815260040180806020018281038252601a8152602001807f6e6f20616472657373657320617265207265676973746572656400000000000081525060200191505060405180910390fd5b7f344c25562921d075a298d34b6dd1fd00d36ff293974539dfd4a8c625d9f0064c60405160405180910390a1565b600060045411611ada576040517f08c379a000000000000000000000000000000000000000000000000000000000815260040180806020018281038252601e8152602001807f6e6f2070726f706f736974696f6e73206172652072656769737465726564000081525060200191505060405180910390fd5b7f240cb87b2e4df4c318e72bd714d45a9cad60249e883ff56b1fffd83a4595a8fa60405160405180910390a1565b7fc379d349a6301baf50fb2f98d829f4ae10b1cdb7c66f4e4d8117302df7b8cd4c60405160405180910390a1565b6000809050600080905060008090505b600454811015611b9157600060086000838152602001908152602001600020600101549050808301925083811115611b8357809350816001819055505b508080600101915050611b46565b50611b9b82611f05565b60008111611bf4576040517f08c379a00000000000000000000000000000000000000000000000000000000081526004018080602001828103825260328152602001806120c86032913960400191505060405180910390fd5b7f0e5e95ff8725ab3e7a4b6b59998a4c344c2aa8d1485f5e60cb7f337768e6134760405160405180910390a15050565b60036005811115611c3157fe5b600560159054906101000a900460ff166005811115611c4c57fe5b14611d8a5760046005811115611c5e57fe5b600560159054906101000a900460ff166005811115611c7957fe5b1480611ca95750600580811115611c8c57fe5b600560159054906101000a900460ff166005811115611ca757fe5b145b15611d1c576040517f08c379a00000000000000000000000000000000000000000000000000000000081526004018080602001828103825260168152602001807f54686520766f74696e672069732066696e69736865640000000000000000000081525060200191505060405180910390fd5b6040517f08c379a00000000000000000000000000000000000000000000000000000000081526004018080602001828103825260198152602001807f54686520766f74696e67206973206e6f7420737461727465640000000000000081525060200191505060405180910390fd5b565b8060000151611e03576040517f08c379a000000000000000000000000000000000000000000000000000000000815260040180806020018281038252601e8152602001807f546869732061646472657373206973206e6f742072656769737465726564000081525060200191505060405180910390fd5b50565b60016005811115611e1357fe5b600560159054906101000a900460ff166005811115611e2e57fe5b14611f035760006005811115611e4057fe5b600560159054906101000a900460ff166005811115611e5b57fe5b1415611eb2576040517f08c379a00000000000000000000000000000000000000000000000000000000081526004018080602001828103825260278152602001806120fa6027913960400191505060405180910390fd5b6040517f08c379a00000000000000000000000000000000000000000000000000000000081526004018080602001828103825260228152602001806121216022913960400191505060405180910390fd5b565b600080905060008090505b600454811015611f545760006008600083815260200190815260200160002060010154905083811415611f465782806001019350505b508080600101915050611f10565b5060018111600560006101000a81548160ff0219169083151502179055505050565b6040518060600160405280600015158152602001600015158152602001600081525090565b828054600181600116156101000203166002900490600052602060002090601f016020900481019282601f10611fdc57805160ff191683800117855561200a565b8280016001018555821561200a579182015b82811115612009578251825591602001919060010190611fee565b5b509050612017919061201b565b5090565b61203d91905b80821115612039576000816000905550600101612021565b5090565b9056fe5468657265206973206e6f2077696e6e696e672070726f706f736974696f6e2c206174206c656173742074776f2061726520657820616571756f4f6e65206f6620746869732061646472657373657320697320616c7265616479207265676973746572656454686973206164647265737320697320616c726561647920726567697374657265645468657265206973206e6f2077696e6e696e672070726f706f736974696f6e206e6f20766f746573207765726520646f6e655468652070726f706f7374696f6e207265636f7264696e67206973206e6f7420737461727465645468652070726f706f736974696f6e207265636f7264696e6720697320656e6465645468657265206973206e6f74206675727468657220737465702061667465722074686520766f74652069732074616c6c696564a265627a7a72315820146091477ef7dc77be786f2f29a942ca31f18143c28233c9d5d640e68649367664736f6c63430005100032",
  "source": "// SPDX-License-Identifier: GPL-3.0\npragma solidity >=0.4.21 <0.8.1;\n\nimport \"./Ownable.sol\";\n\ncontract Voting is Ownable{\n\n    struct Voter {\n        bool isRegistered;\n        bool hasVoted;\n        uint votedProposalId;\n    }\n\n    struct Proposal {\n        string description;\n        uint voteCount;\n    }\n    \n    uint private winningProposalId;\n    uint private NextiStatus;\n    uint private nbAddress;\n    uint private nbProposals;\n    bool private ExAequo = false;\n    address private owner;\n    \n    enum WorkflowStatus {\n        RegisteringVoters,              // 0\n        ProposalsRegistrationStarted,   // 1\n        ProposalsRegistrationEnded,     // 2\n        VotingSessionStarted,           // 3\n        VotingSessionEnded,             // 4\n        VotesTallied                    // 5\n    }\n    \n    WorkflowStatus  private CurrentStatus;\n    \n    mapping(uint=> address) private adresses;\n    mapping(address=> Voter) private _whitelist;\n    mapping(uint=> Proposal) private proposals;\n\n    event VoterRegistered(address voterAddress);\n    event ProposalsRegistrationStarted();\n    event ProposalsRegistrationEnded();\n    event ProposalRegistered(uint proposalId);\n    event VotingSessionStarted();\n    event VotingSessionEnded();\n    event Voted (address voter, uint proposalId);\n    event VotesTallied();\n    event WorkflowStatusChange(WorkflowStatus previousStatus, WorkflowStatus newStatus);\n\n    // Public  Datas\n    function getCurrentStatus() external view returns(uint){\n       return uint(CurrentStatus);\n    }\n    \n    function getProposalsById(uint _idProposal) external view returns(string memory){\n      return proposals[_idProposal].description;\n    }\n    \n    function getProposalsByIdLength() external view returns(uint){\n      return nbProposals;\n    }\n    \n    function getAddress(uint index) external view returns(address){\n       return adresses[index];\n    }\n   \n    function getAddressCount() external view returns(uint){\n       return nbAddress;\n    }\n    \n    // End Public  Datas\n    \n\n    // Admin actions\n    // -------------------------------------------------------------------------------------------------------------\n    // Public functions\n    // -------------------------------------------------------------------------------------------------------------\n\n   \n\n    // To register only one adress\n    function AdminVoteRegisterAdress(address _address) external onlyOwner {\n        require(CurrentStatus ==  WorkflowStatus.RegisteringVoters, \"The voting registering is ended\");\n        require(!_whitelist[_address].isRegistered, \"This address is already registered\");\n        RegisterAdress(_address);\n    }\n    // To register a list of adresses\n    function AdminVoteRegisterAdresses(address[] calldata _addresses) external onlyOwner {\n        require(CurrentStatus ==  WorkflowStatus.RegisteringVoters, \"The voting registering is ended\");\n        \n        for(uint rangeAdresses=0;rangeAdresses<_addresses.length;rangeAdresses++)\n            require(!_whitelist[_addresses[rangeAdresses]].isRegistered, \"One of this addresses is already registered\");\n\n        for(uint rangeAdresses=0;rangeAdresses<_addresses.length;rangeAdresses++)\n            RegisterAdress(_addresses[rangeAdresses]);\n    }\n\n    function AdminActions(WorkflowStatus _status) external onlyOwner {\n\n        // we convert enum in uint to increment it at the end of this call to have the next awaited status for the next call\n        uint istatus = uint(_status);\n\n         // if it's more than 5 it's after the last WorkflowStatus\n        if(istatus > 5)\n            revert(\"There is not further step after the vote is tallied\");\n\n        // we test if the next event action awaited is the good one if not we throw an error\n        if(istatus != NextiStatus)\n            ErrorStatus();\n\n        if(_status == WorkflowStatus.ProposalsRegistrationStarted) \n            AdminStartRegisterProposals();\n        else if(_status == WorkflowStatus.ProposalsRegistrationEnded)\n            AdminStopRegisterProposals();\n        else if(_status == WorkflowStatus.VotingSessionStarted)\n            AdminStartVoting;\n        else if(_status == WorkflowStatus.VotingSessionEnded)\n            AdminStopVoting();\n         else if(_status == WorkflowStatus.VotesTallied)\n             AdminTallied();\n\n         if(_status !=  WorkflowStatus.VotesTallied)\n            NextiStatus++;\n\n        emit WorkflowStatusChange(CurrentStatus,_status);\n\n        CurrentStatus = _status;\n    }\n\n    // --------------------------------------------------------------------------------------------------------------\n    // End Public functions\n    // --------------------------------------------------------------------------------------------------------------\n    // --------------------------------------------------------------------------------------------------------------\n    // Private functions\n    // --------------------------------------------------------------------------------------------------------------\n    function RegisterAdress(address _address) internal {\n        _whitelist[_address].isRegistered = true;\n\n        (NextiStatus,CurrentStatus, adresses[nbAddress]) = (1, WorkflowStatus.RegisteringVoters, _address);\n        nbAddress++;\n        emit VoterRegistered(_address);\n        emit WorkflowStatusChange(WorkflowStatus.RegisteringVoters, WorkflowStatus.RegisteringVoters);\n    }\n\n    function AdminStartRegisterProposals() internal {\n        require(nbAddress > 0, \"no adresses are registered\");\n        emit ProposalsRegistrationStarted();\n    }\n\n    function AdminStopRegisterProposals() internal{\n        require(nbProposals > 0, \"no propositions are registered\");\n        emit ProposalsRegistrationEnded();\n    }\n\n    function AdminStartVoting() internal{\n        emit VotingSessionStarted();\n    }\n\n    function AdminStopVoting() internal{\n        emit VotingSessionEnded();\n    }\n\n    function AdminTallied() internal{\n        uint maxCount = 0;\n        uint totalCount = 0;\n\n        for(uint proposalId =0;proposalId< nbProposals;proposalId++){\n            uint countProposalID = proposals[proposalId].voteCount;\n            totalCount += countProposalID;\n            if (countProposalID > maxCount){\n                maxCount = countProposalID;\n                winningProposalId = proposalId;\n            }\n        }\n\n       CheckIfExAequo(maxCount);\n\n        require(totalCount>0, \"There is no winning proposition no votes were done\");\n\n        emit VotesTallied();\n    }\n\n    function ErrorStatus() view internal {\n        string memory statusAwaited = \"\";\n        if(NextiStatus == 0)\n            statusAwaited = \"First step : registration\";\n        if(NextiStatus == 1)\n            statusAwaited = \"Next step : registration start\";\n        else if(NextiStatus == 2)\n            statusAwaited = \"Next step : registration end\"; \n        else if(NextiStatus == 3)\n            statusAwaited = \"Next step : vote start\"; \n        else if(NextiStatus == 4)\n            statusAwaited = \"Next step : vote end\"; \n        else if(NextiStatus == 5)\n            statusAwaited = \"Next step : vote counting\"; \n\n        revert(statusAwaited); \n    }\n\n    // if two or more propositions have the same max votes we put it in the ExAequo variable\n    function CheckIfExAequo(uint maxCount) internal {\n        uint nbVotesMax = 0;\n        for(uint proposalId = 0;proposalId< nbProposals;proposalId++){\n           uint countProposalID = proposals[proposalId].voteCount;\n           if(countProposalID == maxCount){\n               nbVotesMax++;\n           }\n        }\n\n        ExAequo = nbVotesMax > 1;\n    }\n    // --------------------------------------------------------------------------------------------------------------\n     // End Private functions\n    // --------------------------------------------------------------------------------------------------------------\n    // --------------------------------------------------------------------------------------------------------------\n    // End Admin actions\n    // --------------------------------------------------------------------------------------------------------------\n\n\n    // --------------------------------------------------------------------------------------------------------------\n    // Users voting actions\n    // --------------------------------------------------------------------------------------------------------------\n    // --------------------------------------------------------------------------------------------------------------\n    // Public functions\n    // --------------------------------------------------------------------------------------------------------------\n    function UsersProposalsRecord(string calldata _descriptionProposal) external {\n        RequireIsPropositionStarted();\n        Voter memory voter = _whitelist[msg.sender];\n        RequireUserRegistered(voter);\n        \n        for(uint proposalIdFor =0;proposalIdFor< nbProposals;proposalIdFor++){\n            string memory description = proposals[proposalIdFor].description;\n            require(keccak256(bytes(_descriptionProposal)) != keccak256(bytes(description)),\"This proposition already exists\");\n        }\n\n        proposals[nbProposals] = Proposal(_descriptionProposal, 0);\n        \n        emit ProposalRegistered(nbProposals);\n        \n        nbProposals++;\n    }\n\n    function UsersVote(uint proposalId) external {\n        RequireIsVoting();\n        RequireUserRegistered(_whitelist[msg.sender]);\n        require(proposalId < nbProposals, \"This proposition doesn't exist\");\n        require(!_whitelist[msg.sender].hasVoted, \"This user has already voted\");\n\n        _whitelist[msg.sender].hasVoted = true;\n        proposals[proposalId].voteCount += 1; \n        emit Voted(msg.sender, proposalId);\n    }\n\n    function UsersGetWinningProposal() view external returns(uint, string memory, uint){\n        require(CurrentStatus == WorkflowStatus.VotesTallied, \"The vote is not tallied yet\");\n        require(!ExAequo, \"There is no winning proposition, at least two are ex aequo\");\n        return(\n            winningProposalId,\n            proposals[winningProposalId].description, \n            proposals[winningProposalId].voteCount\n            );\n    }\n    // --------------------------------------------------------------------------------------------------------------\n    // End Public functions\n    // --------------------------------------------------------------------------------------------------------------\n\n    // --------------------------------------------------------------------------------------------------------------\n    // Private functions\n    // --------------------------------------------------------------------------------------------------------------\n    function RequireIsPropositionStarted() view internal{\n        if(CurrentStatus != WorkflowStatus.ProposalsRegistrationStarted) {\n           if(CurrentStatus == WorkflowStatus.RegisteringVoters)\n            revert(\"The propostion recording is not started\");\n           else\n            revert(\"The proposition recording is ended\");\n        }\n    }\n\n    function RequireIsVoting() view internal{\n         if(CurrentStatus != WorkflowStatus.VotingSessionStarted) {\n           if(CurrentStatus == WorkflowStatus.VotingSessionEnded || CurrentStatus == WorkflowStatus.VotesTallied)\n            revert(\"The voting is finished\");\n           else\n            revert(\"The voting is not started\");\n        }\n    }\n\n    function RequireUserRegistered(Voter memory voter) pure internal {\n         require(voter.isRegistered, \"This address is not registered\");\n    }\n    // --------------------------------------------------------------------------------------------------------------\n    // End Private functions\n    // --------------------------------------------------------------------------------------------------------------\n    // --------------------------------------------------------------------------------------------------------------\n    // End Users voting actions\n    // --------------------------------------------------------------------------------------------------------------\n}",
  "sourcePath": "C:/Node/VotingSolidityClean/contracts/Voting.sol",
  "compiler": {
    "name": "solc",
    "version": "0.5.16+commit.9c3226ce.Emscripten.clang"
  },
  "schemaVersion": "3.4.0",
  "updatedAt": "2021-05-02T07:40:37.442Z",
  "networkType": "ethereum",
  "devdoc": {
    "methods": {}
  },
  "userdoc": {
    "methods": {}
  }
}